{
  "_format": "hh-sol-artifact-1",
  "contractName": "TokenSale",
  "sourceName": "contracts/TokenSale.sol",
  "abi": [
    {
      "inputs": [
        {
          "internalType": "address",
          "name": "_ciccTokenAddress",
          "type": "address"
        },
        {
          "internalType": "address",
          "name": "_usdtTokenAddress",
          "type": "address"
        }
      ],
      "stateMutability": "nonpayable",
      "type": "constructor"
    },
    {
      "inputs": [
        {
          "internalType": "uint256",
          "name": "_usdtAmount",
          "type": "uint256"
        }
      ],
      "name": "buyTokens",
      "outputs": [],
      "stateMutability": "nonpayable",
      "type": "function"
    },
    {
      "inputs": [],
      "name": "ciccToken",
      "outputs": [
        {
          "internalType": "contract IERC20",
          "name": "",
          "type": "address"
        }
      ],
      "stateMutability": "view",
      "type": "function"
    },
    {
      "inputs": [
        {
          "internalType": "uint256",
          "name": "_newRate",
          "type": "uint256"
        }
      ],
      "name": "setTokensPerUSDT",
      "outputs": [],
      "stateMutability": "nonpayable",
      "type": "function"
    },
    {
      "inputs": [],
      "name": "tokensPerUSDT",
      "outputs": [
        {
          "internalType": "uint256",
          "name": "",
          "type": "uint256"
        }
      ],
      "stateMutability": "view",
      "type": "function"
    },
    {
      "inputs": [],
      "name": "usdtToken",
      "outputs": [
        {
          "internalType": "contract IERC20",
          "name": "",
          "type": "address"
        }
      ],
      "stateMutability": "view",
      "type": "function"
    },
    {
      "inputs": [],
      "name": "withdraw",
      "outputs": [],
      "stateMutability": "nonpayable",
      "type": "function"
    }
  ],
  "bytecode": "0x60806040526104e260035534801561001657600080fd5b50604051610daf380380610daf83398181016040528101906100389190610164565b816000806101000a81548173ffffffffffffffffffffffffffffffffffffffff021916908373ffffffffffffffffffffffffffffffffffffffff16021790555080600160006101000a81548173ffffffffffffffffffffffffffffffffffffffff021916908373ffffffffffffffffffffffffffffffffffffffff16021790555033600260006101000a81548173ffffffffffffffffffffffffffffffffffffffff021916908373ffffffffffffffffffffffffffffffffffffffff16021790555050506101a4565b600080fd5b600073ffffffffffffffffffffffffffffffffffffffff82169050919050565b600061013182610106565b9050919050565b61014181610126565b811461014c57600080fd5b50565b60008151905061015e81610138565b92915050565b6000806040838503121561017b5761017a610101565b5b60006101898582860161014f565b925050602061019a8582860161014f565b9150509250929050565b610bfc806101b36000396000f3fe608060405234801561001057600080fd5b50600436106100625760003560e01c806301205534146100675780631a1986e0146100855780633610724e146100a35780633ccfd60b146100bf5780636c66c6e8146100c9578063a98ad46c146100e5575b600080fd5b61006f610103565b60405161007c91906107ea565b60405180910390f35b61008d610127565b60405161009a919061081e565b60405180910390f35b6100bd60048036038101906100b8919061086a565b61012d565b005b6100c7610361565b005b6100e360048036038101906100de919061086a565b6106ab565b005b6100ed610745565b6040516100fa91906107ea565b60405180910390f35b60008054906101000a900473ffffffffffffffffffffffffffffffffffffffff1681565b60035481565b60006003548261013d91906108c6565b90508060008054906101000a900473ffffffffffffffffffffffffffffffffffffffff1673ffffffffffffffffffffffffffffffffffffffff166370a08231306040518263ffffffff1660e01b81526004016101999190610929565b602060405180830381865afa1580156101b6573d6000803e3d6000fd5b505050506040513d601f19601f820116820180604052508101906101da9190610959565b101561021b576040517f08c379a000000000000000000000000000000000000000000000000000000000815260040161021290610a09565b60405180910390fd5b600160009054906101000a900473ffffffffffffffffffffffffffffffffffffffff1673ffffffffffffffffffffffffffffffffffffffff166323b872dd3330856040518463ffffffff1660e01b815260040161027a93929190610a29565b6020604051808303816000875af1158015610299573d6000803e3d6000fd5b505050506040513d601f19601f820116820180604052508101906102bd9190610a98565b5060008054906101000a900473ffffffffffffffffffffffffffffffffffffffff1673ffffffffffffffffffffffffffffffffffffffff1663a9059cbb33836040518363ffffffff1660e01b8152600401610319929190610ac5565b6020604051808303816000875af1158015610338573d6000803e3d6000fd5b505050506040513d601f19601f8201168201806040525081019061035c9190610a98565b505050565b600260009054906101000a900473ffffffffffffffffffffffffffffffffffffffff1673ffffffffffffffffffffffffffffffffffffffff163373ffffffffffffffffffffffffffffffffffffffff16146103f1576040517f08c379a00000000000000000000000000000000000000000000000000000000081526004016103e890610b3a565b60405180910390fd5b600160009054906101000a900473ffffffffffffffffffffffffffffffffffffffff1673ffffffffffffffffffffffffffffffffffffffff1663a9059cbb600260009054906101000a900473ffffffffffffffffffffffffffffffffffffffff16600160009054906101000a900473ffffffffffffffffffffffffffffffffffffffff1673ffffffffffffffffffffffffffffffffffffffff166370a08231306040518263ffffffff1660e01b81526004016104ad9190610929565b602060405180830381865afa1580156104ca573d6000803e3d6000fd5b505050506040513d601f19601f820116820180604052508101906104ee9190610959565b6040518363ffffffff1660e01b815260040161050b929190610ac5565b6020604051808303816000875af115801561052a573d6000803e3d6000fd5b505050506040513d601f19601f8201168201806040525081019061054e9190610a98565b5060008054906101000a900473ffffffffffffffffffffffffffffffffffffffff1673ffffffffffffffffffffffffffffffffffffffff1663a9059cbb600260009054906101000a900473ffffffffffffffffffffffffffffffffffffffff1660008054906101000a900473ffffffffffffffffffffffffffffffffffffffff1673ffffffffffffffffffffffffffffffffffffffff166370a08231306040518263ffffffff1660e01b81526004016106079190610929565b602060405180830381865afa158015610624573d6000803e3d6000fd5b505050506040513d601f19601f820116820180604052508101906106489190610959565b6040518363ffffffff1660e01b8152600401610665929190610ac5565b6020604051808303816000875af1158015610684573d6000803e3d6000fd5b505050506040513d601f19601f820116820180604052508101906106a89190610a98565b50565b600260009054906101000a900473ffffffffffffffffffffffffffffffffffffffff1673ffffffffffffffffffffffffffffffffffffffff163373ffffffffffffffffffffffffffffffffffffffff161461073b576040517f08c379a000000000000000000000000000000000000000000000000000000000815260040161073290610ba6565b60405180910390fd5b8060038190555050565b600160009054906101000a900473ffffffffffffffffffffffffffffffffffffffff1681565b600073ffffffffffffffffffffffffffffffffffffffff82169050919050565b6000819050919050565b60006107b06107ab6107a68461076b565b61078b565b61076b565b9050919050565b60006107c282610795565b9050919050565b60006107d4826107b7565b9050919050565b6107e4816107c9565b82525050565b60006020820190506107ff60008301846107db565b92915050565b6000819050919050565b61081881610805565b82525050565b6000602082019050610833600083018461080f565b92915050565b600080fd5b61084781610805565b811461085257600080fd5b50565b6000813590506108648161083e565b92915050565b6000602082840312156108805761087f610839565b5b600061088e84828501610855565b91505092915050565b7f4e487b7100000000000000000000000000000000000000000000000000000000600052601160045260246000fd5b60006108d182610805565b91506108dc83610805565b92508282026108ea81610805565b9150828204841483151761090157610900610897565b5b5092915050565b60006109138261076b565b9050919050565b61092381610908565b82525050565b600060208201905061093e600083018461091a565b92915050565b6000815190506109538161083e565b92915050565b60006020828403121561096f5761096e610839565b5b600061097d84828501610944565b91505092915050565b600082825260208201905092915050565b7f4e6f7420656e6f756768204349434320746f6b656e7320696e2074686520636f60008201527f6e74726163740000000000000000000000000000000000000000000000000000602082015250565b60006109f3602683610986565b91506109fe82610997565b604082019050919050565b60006020820190508181036000830152610a22816109e6565b9050919050565b6000606082019050610a3e600083018661091a565b610a4b602083018561091a565b610a58604083018461080f565b949350505050565b60008115159050919050565b610a7581610a60565b8114610a8057600080fd5b50565b600081519050610a9281610a6c565b92915050565b600060208284031215610aae57610aad610839565b5b6000610abc84828501610a83565b91505092915050565b6000604082019050610ada600083018561091a565b610ae7602083018461080f565b9392505050565b7f4f6e6c7920746865206f776e65722063616e2077697468647261770000000000600082015250565b6000610b24601b83610986565b9150610b2f82610aee565b602082019050919050565b60006020820190508181036000830152610b5381610b17565b9050919050565b7f4f6e6c7920746865206f776e65722063616e2073657420746865207261746500600082015250565b6000610b90601f83610986565b9150610b9b82610b5a565b602082019050919050565b60006020820190508181036000830152610bbf81610b83565b905091905056fea2646970667358221220d63d93861cadf2b7f9163bef071bd081a3b956283fe5f5e7432d1e465d76db7564736f6c63430008140033",
  "linkReferences": {},
  "deployedLinkReferences": {}
}